:10000000B86400201901000015010000150100006E
:1000100000000000000000000000000000000000E0
:1000200000000000000000000000000015010000BA
:100030000000000000000000410A0000850A0000E6
:100040001501000015010000150100001501000058
:100050001501000015010000150100001501000048
:100060001501000015010000150100001501000038
:100070001501000015010000150100001501000028
:100080001501000015010000150100001501000018
:100090001501000000000000000000001501000034
:1000A00015010000150100001501000015010000F8
:1000B0000000000010B5064C2378002B07D1054B3B
:1000C000002B02D0044800E000BF0123237010BDC4
:1000D0003C0400200000000038260000084B10B54A
:1000E000002B03D00749084800E000BF0748036819
:1000F000002B00D110BD064B002BFBD09847F9E731
:1001000000000000400400203826000038260000CF
:1001100000000000FEE70000F8B52A4A2A4B9A4288
:1001200011D01A00294B9A420DD2294A03339B1A47
:100130009B0801339B000022234822498C5884509D
:1001400004329A42FAD1234A234B9A420AD2D34329
:1001500021495B1803218B4304339B18002102C201
:100160009342FCD11D4AFF211D4B8B439360FD3907
:1001700090235B001B4AD1501B4AD3780325AB4325
:1001800002242343D370D3780C27BB430826334380
:10019000D370164B987B30229043202210439873E3
:1001A000997BB943314399739A7BAA4322439A734B
:1001B0000F4A536880210B4353600E4B98470E4BF8
:1001C0009847FEE738260000000000203C0400208D
:1001D000040000203C040020B844002000ED00E0B2
:1001E0000000000000700041005000410048004144
:1001F000004000418D22000029050000014A024B09
:100200001A60704740420F000000002070B50400E3
:100210002A4B98472A4B9B68002B11D00025002CB5
:1002200046D020000830430702D007239843083007
:10023000431E244A002593423AD821490B6813E013
:100240001F490B001433072293430B6000254D60B8
:100250001D4A1E481061D56058600C321A60012397
:100260008B60DBE7190013005A68904202D91A68C4
:10027000002AF7D1144A0C3293421DD00D6808357C
:100280001A680A605A68121A102A0CD91C1862607F
:10029000586060680A4900E011000A685668B04278
:1002A000FAD822600C600A4A5B681168CB1A1360A6
:1002B000084B9847280070BD0025F9E73118000069
:1002C00058040020763E0000D8420020783E00000E
:1002D000040000205D19000070B5041E16D0050052
:1002E000083D0B4B984769680A4A00E01A001368FA
:1002F00058688142FAD8083C23601560064A636852
:1003000011688C4663441360044B984770BDC04627
:100310003118000058040020040000205D1900007E
:10032000030008334360012252428260C3600361CC
:1003300000230360704700230361704743684B60EC
:100340009A688A609A68516099600861036801330D
:100350000360704730B50C6802000832631C02D19C
:10036000026904E01A0053681D68AC42FAD253686F
:100370004B6099608A6051600861036801330360D3
:1003800030BD03694268816891608268416851604C
:100390005A68904206D0002202611A68013A1A6037
:1003A0001868704782685A60F5E70000F8B5094D93
:1003B000094E0A4C2800B0476420A047084B1B7E1A
:1003C0005B07F7D5074B1868002300220021064F72
:1003D000B847EFE744250000FD060000511A000071
:1003E000000800424C440020550D0000F0B583B0D9
:1003F0000C4E0D4C0D4D0BE00D4B1B8D6A46D11D67
:100400000B700C4B18680023FA22D2000A4FB84731
:100410000A493068A0470128EED02800084B9847C9
:10042000F6E7C0464C4400200511000048250000B6
:1004300000080042EC420020550D0000B80B0000FF
:10044000FD06000070B50F4C04340F4E0F4D06E052
:10045000802212030E4B5A610E480F4B98470F4AE9
:1004600021003068A8470028F9D0064B1B79302BB3
:10047000EED080221203064B9A610948064B98473A
:10048000EDE7C046EC42002008000020B10F00005C
:100490000044004160250000FD060000DC0500006E
:1004A0006C250000F0B585B0164E174F35003300AF
:1004B0000533019311E01548154B98470DE0154B96
:1004C00018680023FA22D2000E490531124CA047C9
:1004D000082202A96820114B9847114A1149306837
:1004E000B8470028F9D06B79342BE4D0312BE6D013
:1004F000084B18680023FA22D2000199064CA04745
:10050000E6E7C046EC420020B10F0000782500006D
:10051000FD06000008000020550D0000AD1300008E
:10052000DC050000F1420020F0B585B0324B984761
:10053000324A136A32490B401362324B9847324BAE
:100540009847324B002153229954802212039A601B
:1005500002A910230B7024334B701C3B8B700A33A1
:100560000B711E3B4B7115338B7107226820284B92
:100570009847032200210120264B9847264B1860FC
:10058000002804D0002300220021244CA047002290
:10059000012101201F4CA047214B1860002201219E
:1005A0000120A0471F4B18608025AD000026019652
:1005B0000323009300232A001B491C481C4CA0471E
:1005C00001960227009700232A001A491A48A047DB
:1005D0000196009700232A0018491948A047019660
:1005E0000123009300232A0016491748A047174B00
:1005F0009847002005B0F0BDFD0100000008004054
:10060000FFFCFFFFF12100005914000000440041ED
:100610002D130000090D00004C440020550D000072
:1006200008000020EC42002094250000AD030000EB
:10063000F51500009C250000ED030000A825000032
:10064000A5040000B425000045040000C9170000FF
:10065000024A1368591C116018707047F442002058
:1006600010B53023092805D9064B1A793723002AFB
:1006700000D120331818C0B2034B98470122014B18
:100680005A7110BDF44200205106000010B50E4B07
:100690001A899A60824210D30023121A0133DBB206
:1006A0009042FAD908498A604A79002A01D1002B80
:1006B00002D01800054B984710BD034B5B79002B07
:1006C000FAD00023F5E7C046F4420020610600009E
:1006D0000A2808D0084901220B7E1342FCD080B2C0
:1006E000054B18857047044901220B7E1342FCD04C
:1006F0000D22014B1A85EDE7000800420FB4F0B55A
:10070000DE4657464E464546E0B587B010AB80CB37
:100710000593734B0C330293714B9A46714B984679
:1007200053460C3303938CE07B78302B29D002376F
:100730000022934600241A00303A092A0CD8A2005D
:10074000A4186400303CE418E4B27A1C3B7817002B
:10075000190030390929F2D9614A02991160002241
:100760005F494A71632B00D17DE00FD8252B00D162
:1007700086E0582B11D0002B00D1A6E0584D0C3547
:100780003CE0BB78033701229346D3E7732B72D04A
:100790001BD9752B1BD0782BF0D1514D583B5942AA
:1007A00059412971059B1A1D05921B68AB60802079
:1007B00040014D4EB04780204000B0471020B04768
:1007C000287A4A4B98470C3518E0642BD6D1059A05
:1007D000111D0591126842498A60642B3BD0444840
:1007E000414DA847FA208000A8476420A8470A2066
:1007F000A8473B4D287A3D4B98470C35002352467D
:10080000126813706B1C994653464A461A60287842
:10081000002855D0002C0CD0AA1C631EDBB211009E
:10082000561E3678002E3CD001321C1EF5D12C4BC2
:10083000196028784D46C04701356B1E187800288E
:10084000F9D13878002840D0252800D16CE701374D
:10085000244B9847F5E7002AC1DA52428A602D20DE
:10086000244B9847BBE7059B1A1D05921878214B2E
:100870009847039DC2E7059B1A1D05921D68BDE7B9
:1008800025201C4B9847164D0C35B7E71E000198E4
:10089000A047731EDBB2002EF8D128780028C9D1FA
:1008A000CFE70F4A1160023CE6B2002BC2D02024F1
:1008B0005B46002B00D03024E3B20193094CE6E7FD
:1008C000661EF6B2002CF2D1BBE707B03CBC9046E6
:1008D0009946A246AB46F0BC08BC04B01847C046D7
:1008E000F4420020D10600008D06000061060000E1
:1008F000102700005106000082B000230193064B30
:100900001B68013301D072B6FEE772B6019B002B63
:10091000FCD002B07047C0460C0000200000000070
:100920000B4A13681868203080F30988022080F38E
:100930001488BFF36F8F3FBCAE4608BC04BC62B6E0
:100940001847C046C046C046C046C046C046C0461E
:10095000C043002010B5031F802464041C60043BC6
:100960001960043B02491960143B1A60403810BDFD
:10097000F908000010B50F4B1968FF2212040A4352
:100980001A601968FF2212060A431A600A4A0023F5
:1009900013600A490B600A480A4908600721116080
:1009A000094A1360094B9847094B9847094B9847E8
:1009B000002010BD20ED00E010E000E018E000E0B5
:1009C000FF76010014E000E00C0000202109000087
:1009D000911A0000F908000080225205034B1A60AA
:1009E000BFF34F8FBFF36F8F7047C04604ED00E039
:1009F00072B6044A136801331360BFF34F8FBFF31D
:100A00006F8F70470C000020064B1B68002B01D134
:100A100072B6FEE7013B034A1360002B00D162B6B9
:100A20007047C0460C000020EFF3108072B670478C
:100A300080F31088704700000000000000000000F4
:100A4000EFF309800E4B1A6820381060F0C044465E
:100A50004D4656465F46F0C008B572B601F018F82C
:100A600062B60CBC116808681030F0C8A046A946F0
:100A7000B246BB4680F309882038F0C81847C04604
:100A8000C043002010B5074B98470400064B984719
:100A9000002803D080225205044B1A602000044B2A
:100AA000984710BD290A00004D18000004ED00E031
:100AB000310A000010B50400034B9847A46B034BA8
:100AC00098476042604110BDF1090000090A00002A
:100AD00070B504001600856B026C002A0BD1002053
:100AE0002368834204D16068164B984700236360F3
:100AF0000135A56370BD002E0ED18068124B98475A
:100B0000A368226C94466344A36000206268934209
:100B1000EED32368A360EBE7C0680B4B9847236CC8
:100B20005B42E268D218E26021688A4203D26268BE
:100B300094466344E3600020022ED9D18542D7D089
:100B4000013DD5E7451D0000D522000070B582B0FB
:100B500001900A00846C002C05D0A16BE36B9942D4
:100B600003D372B6FEE772B6FEE7A16B00268B4296
:100B700002D8300002B070BD4523E55C6DB201A91A
:100B800020000A4B984706006B1C0AD1636A002BB1
:100B9000EFD020002430064B98470028E9D00126EA
:100BA000E7E701356DB24523E554E2E7D10A0000DD
:100BB000891B000010B50C00026C002A0BD0C36822
:100BC0009B18C36041688B4201D30368C360C1684E
:100BD0002000014B984710BDD5220000F8B5070052
:100BE000254B98474523FC5C64B2002C1CDD234E4A
:100BF000234D0BE07B6A002B16D038002430A84729
:100C000000280ED1013C64B2002C0DD0BB6C002B2F
:100C1000F0D000213800B0470028F3D0194B984796
:100C2000F0E7184B9847EDE7FF224523FA54164B9F
:100C30009847114B98474423FC5C64B2002C14DDA8
:100C40003B69002B11D03D0010350D4E06E0013CF4
:100C500064B2002C09D03B69002B06D02800B047B5
:100C60000028F4D0074B9847F1E7FF224423FA54B9
:100C7000054B9847F8BDC046F10900004D0B000038
:100C8000891B0000851C0000090A000070B50400E3
:100C90000D00002821D0174B98472268216CE36B88
:100CA0004B43D01860600020A063A2605B1AD31889
:100CB000E360FF234422A3540132A354002D11D139
:100CC0002369002B05D0200010300B4B98470028DB
:100CD00005D10A4B9847012070BD72B6FEE7084B5C
:100CE0009847F6E720001030064DA8472000243032
:100CF000A847EEE7F1090000891B0000090A00007F
:100D0000D909000021030000F8B506000D00170006
:100D1000002801D172B6FEE70800704354300B4B37
:100D20009847041E10D0002D03D0030054330360F5
:100D300000E02060E663256401212000044B984711
:100D40005023E7540023A3642000F8BD0D020000E7
:100D50008D0C0000F0B5CE46474680B585B0040046
:100D60000F0001921D0000280CD000290CD0022D8C
:100D70000FD04E4B9847002810D1019B002B11D06B
:100D800072B6FEE772B6FEE7036C002BEFD072B6C8
:100D9000FEE7E36B012BECD072B6FEE70026444B76
:100DA00098464CE00026FAE72A0039002000414B23
:100DB0009847A36C002B0FD0290020003E4B98478A
:100DC000002801D03D4B98473D4B9847012005B086
:100DD0000CBC90469946F0BD636A002B08D02000F9
:100DE0002430384B98470028EED0344B9847EBE737
:100DF0000028E9D0314B9847E6E7314B984700206F
:100E0000E5E72F4B984701A902A82F4B98470028E8
:100E100044D1274B9847A36B9946E66B284B9847DC
:100E2000B14535D1200010300199284B984720005A
:100E3000274B9847274B9847002826D00126C047C4
:100E4000A36BE26B9342AFD3022DADD0019B002B7D
:100E5000D3D0002E02D102A81F4B9847184B9847B9
:100E60001E4B9847124B98474423E35C5BB2013317
:100E700002D100224423E2544523E35C5BB20133F8
:100E8000BFD100224523E254BBE70C4B9847D5E77E
:100E900020000F4B98470F4B9847CFE720000C4B93
:100EA00098470C4B9847002091E7C046911C0000E2
:100EB000F1090000D10A00004D0B0000D909000023
:100EC000090A0000891B0000191C0000251B0000F6
:100ED000DD0B00005D190000091C00003118000046
:100EE000F0B583B00400019116001D00002812D057
:100EF000019B002B11D0022D14D0284B9847009055
:100F0000A36BE26B9A422FD800250098244B984798
:100F1000280003B0F0BD72B6FEE7036C002BEAD0E8
:100F200072B6FEE7E36B012B1AD072B6FEE7636A76
:100F30000125002BE9D0200024301A4B98470028C7
:100F4000E3D0002E0AD001233360DEE77B1C5BB2C6
:100F50004522A3540125D8E70125D6E70125D4E78A
:100F60000E4B98470090A36B4523E75C7FB22A00A5
:100F7000019920000C4B98477B1CE7D1A36C002BF8
:100F8000D5D029002000094B984701250028BCD066
:100F9000002EE1D001233360B7E7C046290A0000E4
:100FA000310A0000891B0000D10A00004D0B00002F
:100FB000F0B5C64600B584B004000F0001920028C9
:100FC0000AD000290AD0424B984700280BD1019B38
:100FD000002B0CD072B6FEE772B6FEE7036C002B56
:100FE000F1D072B6FEE700263A4B98462FE0002675
:100FF000FAE739002000384B9847013DA563236983
:10100000002B07D020001030344B9847002801D027
:10101000334B9847334B9847012004B004BC9046AB
:10102000F0BD304B98470020F7E702A82E4B9847B9
:1010300016E000224423E2541DE000224523E2543E
:101040001EE02000294B9847294B98470126C047AE
:10105000A56B002DCDD1019B002BE2D0002EE4D05A
:10106000204B9847234B98471A4B98474423E35CFF
:101070005BB20133DDD04523E35C5BB20133DCD0EE
:10108000184B984701A902A81B4B9847002813D179
:1010900020001A4B98470028D3D020002430019913
:1010A000174B98472000114B9847114B9847002841
:1010B000CCD10B4B9847C9E720000C4B98470C4B01
:1010C000984720000D4B98470028BFD00020A4E788
:1010D000911C0000F1090000B50B0000891B000005
:1010E000D9090000090A0000091C0000DD0B0000FE
:1010F0005D19000031180000191C0000B50A00003D
:10110000251B0000F0B585B0041E019104D0036CCE
:10111000002B03D072B6FEE772B6FEE7504B98473D
:10112000002804D1019B002B05D072B6FEE70025F4
:1011300000264C4F48E000250026FAE7013BA36358
:101140002368002B02D1484B984760602369002B2D
:1011500007D020001030454B9847002801D0444B61
:101160009847444B98470125280005B0F0BD002D55
:1011700001D072B6FEE73F4B9847F5E702A83E4B19
:1011800098472AE000224423E25431E0002245231C
:10119000E25432E0334B98476068384B984705007B
:1011A000344B984739E02000354B9847354B9847EA
:1011B00009E02000324B9847324B98472000324BD1
:1011C0009847002838D10126B847A36B002BB5D12A
:1011D000019B002BCBD0002ED0D0264B98472B4B19
:1011E0009847204B98474423E35C5BB20133C9D056
:1011F0004523E35C5BB20133C8D01E4B984701A97D
:1012000002A8234B98470028D3D120001E4B9847B3
:101210000028C8D02368002BBCD0200024300199BE
:101220001C4B98472000164B9847164B98470028B0
:10123000C9D10F4B9847C6E7002D00D194E7094B61
:101240009847636A0021002B03D0236B1B6805318C
:10125000C91A6068104B9847064B9847002583E7EA
:10126000911C0000F10900004D1E0000891B0000C8
:10127000D9090000090A0000091C0000AD1C00008B
:10128000DD0B00005D190000B50A000031180000F8
:10129000191C0000251B0000C11D000010B50A4BE1
:1012A0001B68002B09D00123074CDA00A258002A42
:1012B00004D00133082BF8D110BD0023024ADB0013
:1012C0009950D3185860F7E75044002070B50400D7
:1012D0000D001600114B98474423E35C5BB20133C9
:1012E0000DD04523E35C5BB201330CD00C4B984727
:1012F000A36B002B0BD020000A4B984770BD002237
:101300004423E254EDE700224523E254EEE72000B7
:10131000243032002900044B9847ECE7F109000023
:10132000090A0000DD0B0000511B000070B51C4BCA
:101330005D68C024A4022C435C605C68194D2C409D
:101340005C601C00E369002BFCD14000144B586228
:101350001800037EDB07FCD5002428231048C45462
:10136000037EDB07FCD5104B002018601B689A42F7
:101370000FD90D4E0A48282534003368CB5C4355FD
:10138000037EDB07FCD52368013323602368934287
:10139000F3D3034A5168C0239B020B43536070BDD3
:1013A00000140042FFFFFBFF90440020F0B5274CE3
:1013B0006368274D2B406360E369002BFCD140003C
:1013C000224B58621C00237EDB07FCD50025282316
:1013D0001E4CE554237EDB07FCD51C4B5D68C02406
:1013E000A4022C435C600124204358621800037E51
:1013F0009B07FCD515484368154C23404360154BAB
:10140000002018601B689A420FD9124F0F482826F7
:101410003C003B68855DCD54037E9B07FCD523686B
:101420000133236023689342F3D3084B5C68802028
:10143000C002204358605C68C0208002204358608E
:1014400028201B5C891801390B70F0BD0014004284
:10145000FFFFFBFF904400201E4B072256215A54E9
:1014600001315A543432995C022001439954995CF9
:101470001E3001439954184A136A20210B4313620A
:10148000164B174A5A805968164A0A435A608022F6
:101490005200154B5A601A00D369002BFCD1124A36
:1014A000D368FF218B43DD390B43D360D369002B15
:1014B000FCD10E4A0C4B1A601A00D369002BFCD1E8
:1014C000094A538B10210B435383D369002BFCD162
:1014D0007047C0460044004100040040000C00403A
:1014E00017440000040601000014004216003000FA
:1014F000084B9B6A1B68002B06D0064B9A6AD26881
:10150000D2685268DA62704701225242014BDA62B5
:10151000F9E7C0460C430020F8B5CE46474680B5F3
:10152000124B9846124F1C00124B994643461B6BB8
:10153000002B14D0B847236CDD68281DC847A36C66
:10154000013BA364236B013B23630B4B9847286B40
:101550000A4EB0472800B047236B002BEAD1034B5B
:10156000DB6C012BE2D9064B9847DFE70C430020E8
:10157000F109000083030000090A0000D9020000FD
:10158000D909000070B504000D00154B1E6B586B97
:101590000430144B9847631C12D03419104B5B6B0A
:1015A0005C60A64215D8104DA86A0D4B596B0431EA
:1015B0000E4B9847EB6A9C4211D20B4BDC620EE05B
:1015C000002DEAD0064B596B04310748084B984769
:1015D00005E0034B986B596B0431044B984770BD81
:1015E0008C430020830300000C43002055030000BF
:1015F0003D030000F0B5D6464F464646C0B584B020
:1016000001900D00029397003800634B9847061E27
:1016100000D189E05420604B9847041E00D180E03F
:1016200006633A00A52130005C4B98473A1F236BB4
:101630009C46624407239A4390462A782D33E2540D
:101640002B78002B0CD06B1C220035320535197815
:1016500011701978002903D001330132AB42F6D161
:1016600000223823E2540C9F042F00D90427E7629C
:1016700067640026A664231D03931800484DA847FD
:1016800020001830A84724610523DB1BA361646296
:10169000E6645023E654029A01994046414B98472C
:1016A00020600D9B002B00D01C603F4B98473F4AA9
:1016B000936C013393643E4B5B6B002B37D03C4BF8
:1016C0005B6E002B07D13A4B5B6BDB6AE26A93429D
:1016D00001D8374B5C6336498B6E01338B66E3630D
:1016E000E26ACB6E9A4200D9CA66900082189200D4
:1016F0002E484C30801803992E4B98472E4B984714
:101700002B4B5B6E0120002B05D0294B5B6BDA6AFB
:10171000E36A9A423BD304B01CBC90469946A24669
:10172000F0BD3000254B984701204042F3E7204BA5
:101730005C63936C012BCED1170010004C30204E0F
:10174000B04738006030B04738007430B0473800D8
:101750008830B04738009C30B047154B98463C2342
:1017600043449A461800B047502343449946180012
:10177000B04738001430B04738003430B047380034
:10178000B0475346BB6243464A469A63A3E70D4BB4
:1017900098470120BFE7C0460D0200005923000012
:1017A0003703000055090000F10900000C43002038
:1017B0008C4300203D030000090A0000D90200000C
:1017C00021030000D909000010B582B0114B743319
:1017D00001930023009346220F491048104CA04764
:1017E000012803D0431C12D002B010BD0D4B984706
:1017F0000128F7D172B6012252420B4BDA62054B37
:1018000002325A6600221A63084B9847ECE772B618
:10181000FEE7C0468C430020C025000019150000DB
:10182000F51500000D1F00000C4300207509000095
:10183000024A136F013313677047C0468C43002080
:10184000014B186B7047C0468C430020F8B5CE465C
:10185000474680B53B4B1B6F002B64D1394B1E6B49
:1018600001361E63002E11D1374B9B6A1B68002B7B
:1018700001D072B6FEE7344A916A324B986B90629F
:1018800099639A6F01329A67304B98472E4BDB6A07
:1018900000249E4237D300242B4B99464C22944679
:1018A000634498464B469B6A1B68002B27D0264B07
:1018B0009B6ADB68DF687B689E4231D33D1D280050
:1018C000234B9847BB6A002B03D038001830204BBD
:1018D0009847FB6A1B4AD26E934201D9194AD366D4
:1018E0009800C0188000404429001A4B9847154BB7
:1018F0005B6BFA6ADB6A9A42D4D30124D2E70122F5
:101900005242114BDA620F4B5B6BDA6A93009B1801
:101910009B000D4AD318DB6C012B09D9012407E089
:10192000094AD362EFE7074AD36F0133D367002434
:10193000094B1B68002B00D0012420000CBC9046F2
:101940009946F8BD8C4300200C430020F1140000A0
:10195000830300003D0300000C440020F0B583B079
:10196000314B1B6F002B01D172B6FEE72F4B98470E
:101970002D4B1A6F013A1A671B6F0024002B04D1FC
:101980002B4B9B6C0025002B04D12A4B9847200041
:1019900003B0F0BD264F3E004C367B69002B22D0B1
:1019A000234B1B6ADD6828001830234CA0472B1DF1
:1019B00001931800A047EB6A1B4AD26E934201D9EB
:1019C000194AD3669800C0188000301801991B4B43
:1019D0009847154B5B6BDB6AEA6A9A42DDD30122BA
:1019E000174B1A60D9E7002D01D0164B98470E4BC4
:1019F000DC6F002C0ED0144F114E012502E0013C8B
:101A0000002C04D0B8470028F9D03560F7E7002251
:101A1000054BDA670A4B1B680024002BB5D00B4B33
:101A200098470134B1E7C0468C430020F10900001B
:101A30000C430020090A0000830300003D0300005E
:101A40000C440020F11400004D180000D9090000DA
:101A500010B5041E0FD0094B1B6F002B01D072B6BE
:101A6000FEE7074B984700212000064B9847064B9E
:101A70009847002801D1054B984710BD8C430020A2
:101A800031180000851500005D190000D90900001B
:101A900010B5214B1B6F002B1AD100221F4B1A606F
:101AA0001D4BDB6E9A00D21892001D498A18D26C29
:101AB000002A11D1002B09D0013B9A00D2189200C4
:101AC0008A18D26C002A07D1002BF5D172B6FEE736
:101AD0000122124B1A6010BD114A9900C8188000EB
:101AE0001018046D64680465C91889000200543236
:101AF00094420AD09A00D218920009498A18126DAD
:101B0000D168054A5163D366E5E760680A00044975
:101B10008A181065EEE7C0468C4300200C44002074
:101B20000C43002010B50C00002801D172B6FEE76E
:101B3000044B596B1831044B984701212000034B8B
:101B4000984710BD8C430020550300008515000008
:101B500070B50C00150000280DD0084B596B1831DA
:101B6000074B9847002D01D0012464422900200032
:101B7000044B984770BD72B6FEE7C0468C43002008
:101B80003D0300008515000070B5C368DC68002CBB
:101B900028D0250018352800164B9847164B1B6F88
:101BA000002B21D1251D2800124B9847E36A124AC9
:101BB000D26E934201D9104AD3669800C3189B0095
:101BC0000E484C30C01829000D4B98470A4B5B6BF0
:101BD000E26ADB6A00209A4203D90122094B1A60AB
:101BE000013070BD72B6FEE7290004481430044B82
:101BF0009847EBE7830300008C4300200C43002050
:101C00003D0300000C440020024B9A6F02601B6BE6
:101C1000436070478C43002070B506000D0000281B
:101C20001BD000291BD0134B9847134B1A6B7168BC
:101C30002B68581C1CD01048806F3468844202D036
:101C400001248A4205D2521A9A420AD300232B60F9
:101C500001240A4B9847200070BD72B6FEE772B6A9
:101C6000FEE79B1A2B603000054B98470024F0E7F5
:101C70000024EEE7F10900008C430020090A00006F
:101C8000091C00000122014B1A6070470C4400201F
:101C9000054B5B6E0120002B04D0034B186F4342B1
:101CA000584140007047C0468C43002070B5041E68
:101CB0003DD0C16A1F4B5B6BDB6A99422FD28369AF
:101CC000002B05DB1B4B5B6BDA6A05239B1A8361D8
:101CD0008B0059188900184B4C335B1862699A4283
:101CE00005D0144B5B6BDB6AE36201201EE0251D0F
:101CF0002800124B98470F4B5A6BD26AE262DB6E98
:101D00009A4201D90B4BDA669000821892000A4879
:101D10004C30801829000A4B9847012006E0054BFB
:101D20005B6B406CDB6A98428041404270BD002092
:101D3000FCE7C0468C4300200C43002083030000D6
:101D40003D03000070B5041E2DD0194B5B6B98420B
:101D500001D072B6FEE7836C002B01D172B6FEE7AC
:101D6000013B8364C26A416C8A421ED00020002B72
:101D700018D1251D28000F4B9847636CE36205229C
:101D8000D21AA2610A4AD26E934201D9084AD36696
:101D90009800C3189B0008484C30C0182900074B16
:101DA0009847012070BD0020FCE70020FAE7C046FC
:101DB0008C430020830300000C4300203D030000FF
:101DC00070B5041E0DD0836C002B01D172B6FEE7F6
:101DD000406C884200D20800E26A824201D0012BA6
:101DE00000D070BD154B5B6B9C4201D172B6FEE713
:101DF000E062A369002B02DB0523181AA06193009F
:101E00009A1892000E4B4C339B1862699A42E8D1A3
:101E1000251D28000B4B9847E36A084AD26E93426F
:101E200001D9064AD3669800C3189B0004484C3079
:101E3000C0182900044B9847D3E7C0468C430020C4
:101E40000C430020830300003D030000054B5B6B47
:101E5000002B04D0034B5A6B936C01339364014BFA
:101E6000586B70478C43002010B54160006191426F
:101E70000BD8D21A012483699A4211D2011D094B51
:101E80001868094B984700240AE09A4202D20124BC
:101E9000994205D2011D034B5868034B9847002413
:101EA000200010BD1044002055030000F8B5104B71
:101EB0009847104B9B68002B02D00F4B9847F8BDFA
:101EC0000C4C26000C3630000C4FB847250020354E
:101ED0002800B8476660256000220C210520084BC9
:101EE0009847A0600028E8D00649074B9847E4E7E8
:101EF000F109000010440020090A0000210300003D
:101F0000090D0000002600009D12000010B582B0EF
:101F10000B4B98470B4B9B68002B0ED0094B34336F
:101F20000193022300930023502207490748084CDD
:101F3000A047002801D002B010BD72B6FEE7C0462F
:101F4000AD1E000010440020082600007120000093
:101F5000F515000030B585B004001D00002814D030
:101F6000134B9868002821D001910292039405290F
:101F700015DC104B9847022809D00D4B98680023B8
:101F8000002201A90C4CA0470EE072B6FEE7084BF8
:101F900098680023089A01A9074CA04704E0002391
:101FA0002A0001A9054CA04705B030BD0020FBE781
:101FB00010440020911C0000550D0000E10E0000AF
:101FC000F0B5D6464F464646C0B582B08046234B54
:101FD00098478246224B9B6B984217D30023424678
:101FE00013601F4B52469A63504602B01CBC904689
:101FF0009946A246F0BD002300933A00002120003C
:10200000184CA047002804D172B6FEE7144D164BB9
:1020100099466B681A68002A17D0DB681F68DC686D
:10202000261D3000C8472000636A9847E369012BEA
:10203000EFD1A369FB189F42DDD263602461084B96
:1020400058683100094B9847E3E7054A1168516029
:102050001360012342461360C3E7C04641180000E5
:1020600010440020551F00008303000055030000AA
:10207000F0B589B0524F534B5B681A68002A0ED0F6
:10208000DB681C68504B984705A8504B98470500E3
:10209000059B002B5FD1A04236D200220FE04A4BB5
:1020A000984705A8494B98470500059B002B52D13E
:1020B000444B1B681B685A425A41D2B20024611B30
:1020C000404B9868424B9847424B984700283FD076
:1020D0003C4D414C002205A9A868A0470028CAD061
:1020E000059B0393002BF5DB079E7369002B01D042
:1020F000301DB84704A8354B9847059B092BE9D8F4
:102100009B00364AD3589F46324B98472D4B5B680D
:10211000DB68DE68301D2A4B9847F369012B03D03A
:10212000736A30009847D3E7B369E11823002A00A7
:1021300030002B4DA8470028F2D000230093220046
:1021400000213000274CA0470028E9D172B6FEE7F5
:10215000254B9847BCE71F4B9847B9E7069BB269E8
:10216000944663441900069B020030001C4CA047B3
:102170000028AED03000736A9847F369012BA8D1CC
:10218000069BB1698C4663441A000023009300212A
:102190003000144CA04700289BD172B6FEE7069988
:1021A000B161002906D041180300020030000C4C38
:1021B000A0478EE772B6FEE730000C4B984788E7E1
:1021C000830300001044002031180000C11F0000EC
:1021D000CD1200005D190000B10F0000D8250000ED
:1021E000691E0000551F0000D9090000D902000037
:1021F0001F4A136A04210B4313621E4B83225202AF
:102200005A601D4A5A801D4B03394A22995406319F
:10221000013299542E315A5C0F208243022002432E
:102220005A54585C0F220240202002435A54144B47
:102230001A6833398A431A60124A1A601A00D3693D
:10224000002BFCD1104A0E4B9A811A00D369002B47
:10225000FCD1C02292020A4B5A601A00D369002BAB
:10226000FCD1074A136802210B4313607047C04634
:1022700000040040000C00401440000000440041F5
:10228000000800420400314015FBFFFF70B50D4E01
:102290000D4D0024AD1BAD1005D0A300F358013443
:1022A0009847A542F9D100F0B5F9084E084D002431
:1022B000AD1BAD1005D0A300F35801349847A542DB
:1022C000F9D170BD20260000202600002026000045
:1022D00028260000F0B505000F2A2FD90B00034374
:1022E0009B0734D116000C000300103E3509013560
:1022F0002D01451927681F6067685F60A7689F60A8
:10230000E7681034DF6010339D42F3D10F239E4302
:102310001036851989191340032B1AD91E1F002363
:10232000B4080134A400CF58EF500433A342FAD1CB
:102330000324A643331D2240C918ED18002A05D0F6
:102340000023CC5CEC5401339342FAD1F0BD05007C
:10235000F6E71A00F2E7C046F0B5830743D0541EF3
:10236000002A3FD0CEB20200032502E01A00013C51
:1023700038D3531C16702B42F8D1032C2AD9FF22D4
:102380000A40150215432A0415430F2C14D92700BF
:102390001A00103F3E09013636019E19156055603E
:1023A0009560D56010329642F8D10F2297431037CE
:1023B000DB191440032C0DD91A00271FBE08013663
:1023C000B6009E1920C2B242FCD1032297430437C3
:1023D000DB191440002C05D0C9B21C191970013347
:1023E0009C42FBD1F0BD14000300C6E7034B10B5BF
:1023F000002B02D0024800F005F810BD00000000DC
:102400001524000010B5010000230022002000F078
:102410001FF810BD70B5094B094CE41AA41009D07F
:10242000084AA518AD00ED182B68013C9847043DFB
:10243000002CF9D100F0F8F870BDC0463426000039
:1024400038260000FFFFFF3F7047C0467047C04678
:10245000F0B54E464546DE465746E0B5364D83B0AC
:102460000600286898460F009146FFF7EDFF334BB2
:102470001C68A4235B00E058002852D043681F2B3F
:1024800013DC5A1C0192002E28D1019A02339B00C2
:1024900042601F502868FFF7D9FF002003B03CBC02
:1024A00090469946A246AB46F0BD254B002B3DD049
:1024B000C820400000E000BF002837D0A42200233D
:1024C0005200A15843600160A05040328350043252
:1024D0008350013301930023002ED6D09A009246F8
:1024E00082444A46882154466250C4225200914692
:1024F00081444A468739994012688B460A4394467C
:102500004A4661461160842241465200A150022E83
:10251000BBD102005C468D32FF3211680C4314605F
:10252000B3E720004D30FF30E050A7E72868FFF701
:102530008DFF01204042B1E7380400201026000042
:1025400000000000580000005541525420436F6EB7
:102550006E656374696F6E204572726F7200000061
:10256000636C6F736520646F6F7200006F70656ECF
:1025700020646F6F72000000496E7465726E65743E
:1025800020436F6E6E656374696F6E204572726F63
:1025900072000000436865636B52780050696E6793
:1025A0005261737000000000506173734461746184
:1025B0000000000048616E646C65446F6F7200003B
:1025C00049444C450000000009256309257509258B
:1025D000750925750D0A00005C2100005C210000D2
:1025E0005C210000D42000009E210000B8210000E2
:1025F0005C2100005C210000D42000009E2100002E
:10260000546D725100000000546D722053766300C7
:1026100010000020F8B5C046F8BC08BC9E467047C4
:10262000ED230000DD000000F8B5C046F8BC08BC92
:082630009E467047B500000052
:1026380040420F00783E000001000000AAAAAAAAA2
:1026480000000000FC02002064030020CC030020EE
:102658000000000000000000000000000000000072
:102668000000000000000000000000000000000062
:102678000000000000000000000000000000000052
:102688000000000000000000000000000000000042
:102698000000000000000000000000000000000032
:1026A8000000000000000000000000000000000022
:1026B8000000000000000000000000000000000012
:1026C8000000000000000000000000000000000002
:1026D80000000000000000000000000000000000F2
:1026E80000000000000000000100000000000000E1
:1026F8000E33CDAB34126DE6ECDE05000B000000A6
:1027080000000000000000000000000000000000C1
:1027180000000000000000000000000000000000B1
:1027280000000000000000000000000000000000A1
:102738000000000000000000000000000000000091
:0C2A68000000000000000000944400206A
:00000001FF
