:10000000B86400201901000015010000150100006E
:1000100000000000000000000000000000000000E0
:1000200000000000000000000000000015010000BA
:1000300000000000000000004109000085090000E8
:100040001501000015010000150100001501000058
:100050001501000015010000150100001501000048
:100060001501000015010000150100001501000038
:100070001501000015010000150100001501000028
:100080001501000015010000150100001501000018
:100090001501000000000000000000001501000034
:1000A00015010000150100001501000015010000F8
:1000B0000000000010B5064C2378002B07D1054B3B
:1000C000002B02D0044800E000BF0123237010BDC4
:1000D0003C0400200000000074220000084B10B512
:1000E000002B03D00749084800E000BF0748036819
:1000F000002B00D110BD064B002BFBD09847F9E731
:10010000000000004004002074220000742200005F
:1001100000000000FEE700002148224970B5884237
:1001200004D00023204CCA18A24232D300211F4B16
:100130001F4A934231D3FF211E4B1F4A8B439360CA
:1001400002220C25082430261C4B1D485A62C37815
:10015000FC398B431343C370C378AB432343C37051
:10016000184B987BB0430600202030439873987B4F
:10017000A84304439C73987B884302439A7380236B
:10018000114A51680B435360104B9847104B9847E6
:10019000FEE7C55804331560C5E702C3C9E7C0468A
:1001A00074220000000000203C0400203C040020D9
:1001B000B84400200000000000ED00E0FC700041A9
:1001C000005000410048004100400041051F000070
:1001D000B1040000014A024B1A60704740420F0010
:1001E0000000002070B5284B04009847274B986802
:1001F00000280ED11A00072114328A43244D2549C4
:100200001A600D61C8600C315560116001225860A0
:100210009A60002C05D007220834144201D0944380
:1002200008341D49621E00258A4209D818001A6840
:1002300051688C4208D8174D0C35AA420AD10025C6
:10024000164B9847280070BD1568002DF3D010009C
:100250002A00EDE70568166808350660091B1029B5
:1002600009D9101941605460446819684E68B44255
:1002700007D8016018600A4953680A68D31A0B60EE
:10028000DEE70B00F1E7C046C1150000580400206E
:10029000783E0000D8420020763E0000C1160000E3
:1002A0000400002010B5002811D008380400094BC4
:1002B00098476368084A11684868834208D82160F3
:1002C0001460064A1168CB181360054B984710BD9F
:1002D0000A00F0E7C11500005804002004000020C7
:1002E000C11600000300012208334360C3600361AC
:1002F000002352428260036070470023036170470D
:1003000043689A684B608A609A6851609960036894
:10031000086101330360704703000A6830B5083391
:10032000541C0BD103695A684A6091608B60596014
:10033000036808610133036030BD23005C682568F1
:10034000AA42FAD2EFE74168826803698A6082684C
:1003500051605968884200D15A60002202611A68CF
:10036000013A1A601868704710B50948094B984758
:10037000094B0A209847094B1B7E5B07F5D50023E4
:1003800007481A001900074C0068A047EDE7C0466F
:10039000BC2100007906000095170000000800420B
:1003A0004C4400202D0C000037B5FA24E4000B4B20
:1003B0000B4918680B4B984701280BD16A460A4B2A
:1003C0000A481B8DD11D0B7022000023084D0068C8
:1003D000A847ECE70748084B9847E8E74C4400205B
:1003E000B80B00006D0F000000080042EC42002036
:1003F0002D0C0000BE2100007906000070B580249D
:1004000024030B4D2E1D0B4B0B4A186831000B4B70
:1004100098470028F7D02979094A0A4B302903D197
:10042000094854619847ECE794610848FAE7C046E8
:10043000EC42002008000020DC050000410E000016
:100440000044004179060000D4210000DF210000B3
:1004500073B5FA26F6000E4C0E4A651D2900206879
:100460000D4B98470028F6D06379342B03D10B4805
:100470000B4B9847EFE70B483200290000230A4C4A
:100480000068A047082269466820084B9847E2E7C1
:10049000EC420020DC050000410E0000E9210000D4
:1004A00079060000080000202D0C0000D511000086
:1004B0007FB5334B9847334A3349136A00240B40C6
:1004C0001362324B9847324B98478022314B1203CC
:1004D0001C70314B02A99A6010230B7024334B70AF
:1004E0001C3B8B700A330B711E3B4B7115338B71A8
:1004F00007222A4B68209847032221000120284D1B
:10050000A847284B1860A04204D0230022002100F5
:10051000254CA047012100220800A8470121234BB8
:10052000002218600800A847214B00241860802290
:100530000323204D00930194230092001E491F487D
:10054000A8470226802223000194009692001C49AD
:100550001C48A847802223000194009692001A4963
:100560001A48A847012380220093920023001849CB
:1005700001941848A847184B9847200004B070BD54
:10058000D501000000080040FFFCFFFF751E0000C1
:10059000651200005344004100440041691100000D
:1005A000DD0B00004C4400202D0C00000800002052
:1005B000EC420020CD13000003220000690300007C
:1005C0000B220000A90300001422000051040000C7
:1005D0001D220000FD03000061150000024A13689F
:1005E000591C116018707047F442002010B5302378
:1005F000074C092804D922790733002A00D1203377
:100600001818C0B2034B98470123637110BDC04650
:10061000F4420020DD050000002270B50400012531
:1006200010000A490B898B609C420AD9002A00D02D
:100630008B604B79002B01D1002801D0044B9847E7
:1006400070BD01301B1BC0B22A00EDE7F442002050
:10065000ED050000074B0A2805D10122197E114241
:10066000FCD00D221A850122197E1142FCD080B2E5
:1006700018857047000800420FB4F0B585B00AAB8A
:1006800080CB03933878002804D105B0F0BC08BCB7
:1006900004B01847252803D04F4B01379847F1E79E
:1006A0007878302820D00023023701930300303BB4
:1006B0000026092B06D83B000200303AD2B21F00B8
:1006C000092A15D9454D00232C000C342C606B7180
:1006D00063284CD014D825284ED0582835D09842BD
:1006E000D3D02C000C344EE0B87801230337DCE77C
:1006F000B10076187600B6181878F6B20133DBE749
:1007000073283CD01DD86428EBD1039B1A1D1B68AD
:100710000392AB60642806D1002B04DA5B42AB6025
:1007200037382F4B98472F4C2F48A047FA2080008E
:10073000A0476420A0470A20A047287A2B4B98475F
:10074000CFE77528E1D07828CBD1583842424241D2
:100750008020039B2A711A1D1B684001214C0392C3
:10076000AB60A04780204000A0471020E4E7039B37
:1007700018681A1D0392C0B2194B984703E0039BF7
:100780001A1D1C68039200232A682C601370631CD6
:10079000591E09781A00002911D12B60019B2025D0
:1007A000002B00D03025EDB2002E0CD028000A4BD3
:1007B000013E9847F6B2F7E7013EF6B2E8E70133AB
:1007C000002EF9D12A600134631E1878002800D168
:1007D00058E7014B9847F6E755060000F442002021
:1007E000DD0500001906000010270000ED050000DF
:1007F000002382B00193064B1B68013301D072B60F
:10080000FEE772B6019B002BFCD002B07047C046D9
:100810000C000020000000000000000000000000AC
:100820000B4A13681868203080F30988022080F38F
:100830001488BFF36F8F3FBCAE4608BC04BC62B6E1
:100840001847C046C046C046C046C046C046C0461F
:100850004043002010B58024031F64041C60043B47
:1008600019600349043B1960143B40381A6010BDFD
:10087000F1070000FF220F4B1204196810B50A435C
:100880001A60FF220024196812060A431A600A4BF4
:100890000A4A1C600A4914600A4A116007221A6059
:1008A000094B1C60094B9847094B9847094B9847DF
:1008B000200010BD20ED00E010E000E018E000E0B6
:1008C000FF76010014E000E00C0000202108000089
:1008D000D9170000F10700008022044B52051A606E
:1008E000BFF34F8FBFF36F8F7047C04604ED00E03A
:1008F00072B6044A136801331360BFF34F8FBFF31E
:100900006F8F70470C000020054A1368002B01D13F
:1009100072B6FEE7013B1360002B00D162B6704750
:100920000C000020EFF3108072B6704780F310883F
:100930007047000000000000000000000000000000
:10094000EFF309800E4B1A6820381060F0C044465F
:100950004D4656465F46F0C008B572B600F03CFF03
:1009600062B60CBC116808681030F0C8A046A946F1
:10097000B246BB4680F309882038F0C81847C04605
:100980004043002010B5074B9847074B0400984799
:10099000002803D08022054B52051A602000044B2A
:1009A000984710BD25090000DD15000004ED00E0AA
:1009B0002D09000010B50400034B9847A46B034BAE
:1009C00098476042604110BDF1080000090900002D
:1009D00070B51600026C0400856B002A0AD1066807
:1009E0001000002E03D16068154B984766600135F2
:1009F000A56370BD134B002E0CD180689847A36887
:100A0000226C30009B186268A3609342EFD3236886
:100A1000A360ECE7C0689847236CE2685B422168FA
:100A2000D218E2608A4202D26268D318E3600020E2
:100A3000022EDCD12B005A1E9341ED1AD7E7C04697
:100A4000411A00004D1F0000F7B5846C01900A00A8
:100A5000002C01D172B6FEE7A16BE36B994201D382
:100A600072B6FEE7A16B00268B4214D9270001A9BC
:100A7000453720000B4B3D7898476DB206006B1C44
:100A80000BD1636A002B06D02000074B2430984717
:100A9000002800D001263000FEBD01356DB23D704A
:100AA000F9E7C046D10900009D18000003001A6C48
:100AB00010B50800002A0AD0D9685C688918D96086
:100AC000A14201D31968D960D968014B984710BD7C
:100AD0004D1F0000F8B5040026001C4F4536B847EE
:100AE00035786DB2002D0EDCFF233370184EB04701
:100AF000B847270044373D786DB2002D18DCFF233E
:100B00003B70B047F8BDA36C002B09D0002120003A
:100B1000104B9847002801D00F4B9847013DE0E764
:100B2000636A002BE0D020000C4B24309847F1E79B
:100B30002369002BE3D02000084B10309847002891
:100B400001D0054B9847013DD6E7C046F1080000AB
:100B500009090000490A0000991900009D180000C9
:100B600070B504000D00002801D172B6FEE7164BE7
:100B70009847216CE36B22684B43D0185B1AD3185B
:100B8000E36023006060A2600020FF224433A06382
:100B90001A705A7085420ED12369834207D0200013
:100BA0000A4B10309847002801D0094B9847094B51
:100BB0009847012070BD2000074D1030A847200045
:100BC0002430A847F3E7C046F10800009D18000054
:100BD000D908000009090000E5020000F8B5060088
:100BE0000D001700002801D172B6FEE7080070431F
:100BF0000C4B54309847041E0DD0002D0DD12060B1
:100C0000094BE663256401212000984723005033F7
:100C10001F700023A3642000F8BD03005433036059
:100C2000EEE7C046E5010000610B0000F0B589B0B9
:100C3000041E02910592019301D172B6FEE7029B58
:100C4000002B00D074E0036C002B00D170E072B672
:100C5000FEE7636A002B5BD020003E4B24309847B0
:100C600056E0059D002D02D1B847002056E0002E29
:100C700002D106A8384B9847B847384B9847384BAD
:100C800098472200443213785BB2013301D100232C
:100C900013702200453213785BB2013301D1002377
:100CA0001370B84705A906A82E4B98472E4E2F4D16
:100CB000002839D12A4B9847A36B0393E36B049325
:100CC000B847039B049A93422AD12000059910301B
:100CD000274B98472000B047A847002801D1254B53
:100CE000984701261E4B9847A36BE26B224F934215
:100CF00002D3019B022BB4D1204B019A0299200010
:100D00009847A36C002BA4D0019920001C4B984756
:100D1000002801D0174B9847B847012009B0F0BD13
:100D20002000B047A847DCE72000B047A8479CE771
:100D3000019B022B02D1E36B012B09D1114B984788
:100D400000260028CED1059E002ECBD072B6FEE73D
:100D500072B6FEE79D18000011190000C1150000D1
:100D6000F108000029190000D50A0000C116000092
:100D700039180000D908000009090000D109000055
:100D8000490A0000A5190000F0B585B004000191E2
:100D900017001E00002801D172B6FEE7019B002B50
:100DA0001BD1036C002B18D072B6FEE7002F38D091
:100DB00001253D6003981D4B9847280005B0F0BD04
:100DC000636A002B2DD02000194B2430984726E071
:100DD0000135029B6DB21D7023E0022E02D1E36B40
:100DE000012B20D1134B9847A36BE26B03909342E6
:100DF00002D30025022EDDD12300453302931D7856
:100E000032006DB20C4B0199200098476B1CDFD16A
:100E1000A36C002BD4D031002000084B9847002849
:100E2000C4D10125C6E772B6FEE7C0462D09000011
:100E30009D18000025090000D1090000490A0000A2
:100E4000F0B585B0041E0091019201D172B6FEE7A3
:100E5000009B002B66D1036C002B63D072B6FEE7BB
:100E6000019D002D02D1B84700204DE0002E02D197
:100E700002A8314B9847B847304B9847304B9847BA
:100E80002200443213785BB2013301D10023137086
:100E90002200453213785BB2013301D10023137075
:100EA000B84701A902A8274B9847274F274D284E3E
:100EB00000282FD12000B847002827D02000019912
:100EC0002430244B98472000A847B047002801D180
:100ED000214B984701261A4B9847A56B1F4F002DB1
:100EE000BED01F4B00992000013D9847A5632369A0
:100EF000002B07D020001B4B10309847002801D052
:100F0000154B9847B847012005B0F0BD2000A84711
:100F1000B047DFE72000A847B0472000B8470028C7
:100F2000D8D0A1E7104B984700260028D3D1019EC6
:100F3000002ED0D072B6FEE711190000C1150000D6
:100F4000F108000029190000B5090000D50A0000C9
:100F5000C116000039180000D90800000909000076
:100F6000AD0A00009D180000A5190000F0B585B07D
:100F7000041E019101D172B6FEE7056C002D01D06F
:100F800072B6FEE7494B9847002803D1019D002D1A
:100F900000D088E02F00464EB047A36B002B18D03E
:100FA000013BA3632368002B02D1424B984760604A
:100FB0002369002B07D020003F4B103098470028B2
:100FC00001D03E4B98473E4B98470125280005B07D
:100FD000F0BD019B002B06D1002D01D072B6FEE7BB
:100FE000374B9847F2E7002F02D102A8354B9847BC
:100FF000334FB847344B9847B047220044321378F8
:101000005BB2013301D10023137022004532137803
:101010005BB2013301D100231370B84701A902A8C4
:101020002A4B9847002823D12000294B98470028B5
:1010300018D02368002B05D1B0476068254B98472E
:101040000500B847200001992430234B9847234BD3
:1010500020009847224B9847002801D1174B98470A
:10106000012798E720001D4B98471D4B9847F7E74D
:1010700020001A4B98471A4B98472000144B98476A
:101080000028EDD0002DA1D0B0470021636A8B422B
:1010900003D0236B05311B68C91A6068114B984750
:1010A0000025B84792E772B6FEE7C046A5190000D2
:1010B000F1080000351B00009D180000D908000051
:1010C0000909000011190000C115000029190000CC
:1010D000B5090000BD19000039180000D50A00004C
:1010E000C1160000B11A0000002370B5064ADD00E9
:1010F000AC182668002E02D1A950606070BD013383
:10110000082BF4D1FAE7C0465044002070B5040023
:10111000114B16000D0098472200443213785BB241
:10112000013301D1002313702200453213785BB2E2
:10113000013301D100231370084B9847A36B002B98
:1011400005D12000320029002430054B98472000AB
:10115000044B984770BDC046F10800000909000023
:1011600065180000D50A000030B5C024154BA40254
:101170005D682C435C605C68134D2C405C60DC69EE
:10118000002CFCD140005862187EC007FCD500241A
:101190000E4D2C70187EC007FCD500240C4804604E
:1011A0000468944205D3C022596892020A435A60E7
:1011B00030BD04680C5D2C701C7EE407FCD504680F
:1011C0000134ECE700140042FFFFFBFF281400424B
:1011D00090440020F0B51F4B1F4D5C682C405C60B4
:1011E000DC69002CFCD147005F62187EC007FCD58B
:1011F00000201A4C2070187EC007FCD5C026586805
:10120000B6020643012038435E605862187E8007AC
:10121000FCD5586805405D600025114805600568EB
:1012200095420ED380205D68C00228435860C020DC
:101230005D688002284358602378891801390B7053
:10124000F0BD056826784E551D7EAD07FCD50568B6
:101250000135E3E700140042FFFFFBFF28140042C2
:101260009044002007231B4A13701B4A13701B4A2B
:10127000053B11780B43137020231178194311702B
:10128000174A116A0B431362164B174A5A80596862
:10129000164A0A435A608022154B52005A60DA6996
:1012A000002AFCD1FF21DA688A43110022220A4376
:1012B000DA60DA69002AFCD10E4A1A60DA69002A7B
:1012C000FCD1598B10320A435A83DA69002AFCD1C7
:1012D0007047C04656440041574400413B440041DA
:1012E00000040040000C0040174400000406010008
:1012F0000014004216003000064B9A6A1268002A59
:1013000002D1013ADA6270479A6AD268D2685268AA
:10131000F8E7C0460C430020F8B50500114C124B0D
:10132000266B606B0F00043098476B1C07D1002FB1
:1013300005D02000616B0D4B04319847F8BD636BFD
:1013400075195D600A4BAE4203D9A06B616B043125
:10135000F3E7A06A616B04319847E36A9D42EDD2DE
:10136000E562EBE70C4300204703000001030000A7
:101370001903000070B50F4C636D002B05D1A36DF0
:10138000012BF8D90C4B9847F5E70C4B9847A36C09
:10139000DD680B4B281D9847236D013B2365636D6A
:1013A000013B6365074B9847286B074CA047280013
:1013B000A047E0E70C430020D9080000F108000036
:1013C0004703000009090000A5020000F0B59500E0
:1013D00085B00190544C28000F000293A047061ED0
:1013E00000D193E05420A047041E00D18BE0066397
:1013F0002A004E4BA52130009847236B043D5D1910
:1014000007239D43002300951A00F95C3432A15450
:10141000FA5C002A02D00133052BF5D12300002706
:101420000A9D38331F70042D00D90425231D180090
:10143000E56265643E4EA7640393B0472000183010
:10144000B04705235D1B230050332461A56164620E
:10145000E764029A1F700199364B009898470B9BDE
:101460002060002B00D01C60334B9847334D344F25
:101470002B6D01332B656B6B002B4AD16C632B6D8D
:10148000012B1FD128002F4E5830B04728006C3058
:10149000B04728008030B04728009430B04728007B
:1014A000A830B0472848B0472848B0472800143033
:1014B000B04728003C30B0472800B047224BAB6211
:1014C000224BAB63BB6EE26A0133BB66E363FB6E28
:1014D0009A4200D9FA661423280053435830C018A2
:1014E000211D1B4B98471B4B98477B6E0126002BF9
:1014F00006D06B6BDA6AE36A9A4201D2164B9847C0
:10150000300005B0F0BD3000144B984701267642FC
:10151000F6E77B6E002BD5D16B6BE26ADB6A9342F8
:10152000D0D86C63CEE7C046E5010000D11F0000B3
:10153000FB02000055080000F10800000C430020E9
:101540008C430020E5020000C8430020DC4300205B
:101550000103000009090000D9080000A5020000ED
:1015600073B5104D00242B007433019300942300B5
:1015700046220D490D480E4EB04701280DD10D4BA6
:101580009847012809D172B601220B4B5242DA6208
:1015900068661C63094B984773BD431CFCD172B647
:1015A000FEE7C0468C43002028220000751300008F
:1015B000CD130000E91B00000C430020750800005B
:1015C000024A136F013313677047C0468C430020F3
:1015D000014B186B7047C0460C430020F7B5324CE6
:1015E000236F002B33D1314D2B6B013300932B63D1
:1015F000002B0ED1AB6A1B68002B01D072B6FEE740
:10160000AB6AAA6BAA62AB63A36F0133A367284BD3
:101610009847EB6A009A00279A4207D3234DAB6A9A
:101620001B68002B18D101235B42EB621F4B5A6BE6
:10163000D16A14224A439B189B6D012B00D90127C4
:101640001C4B1B68002B00D001273800FEBDE36F48
:1016500000270133E367F3E7AB6A009ADB68DE68D3
:1016600073689A42E1D3331D01931800124B9847D7
:10167000B36A002B03D030000F4B18309847F36A41
:10168000E26E934200D9E366142228005343583097
:10169000C018311D094B98476B6BF26ADB6A9A429E
:1016A000BCD30127BAE7C0468C4300200C4300207E
:1016B000F91200000C440020470300000103000061
:1016C000F7B52A4D2B6F002B01D172B6FEE7284BE0
:1016D00098472B6F013B2B672C6F002C04D0002404
:1016E000244B98472000FEBD234E336D002BF6D0CF
:1016F0007369002B19D1002C01D0204B9847EC6F57
:10170000002C0AD001261E4B9847002801D01D4B03
:101710001E60013C002CF6D1EC671A4B1B68002BB5
:10172000DDD0194B98470124DAE7336A174FDC689C
:1017300020001830B847231D18000193B847E36A0A
:10174000EA6E934200D9EB661422300053435830BE
:10175000C018211D0E4B9847736BE26ADB6A9A42F0
:10176000C6D30122074B1A60C2E7C0468C43002053
:10177000F1080000090900000C430020F9120000E4
:10178000DD1500000C440020D908000047030000CC
:101790000103000070B5041E02D10A4B984770BDCA
:1017A000094B1D6F002D01D072B6FEE7074B98471D
:1017B000074B290020009847064B98470028EED198
:1017C000EBE7C046D90800008C430020C11500009B
:1017D00019130000C1160000144870B5026F144BB5
:1017E000002A02D001221A6070BD14261A60C36E4E
:1017F000104932005A438C18A56D002D10D02200DC
:10180000E56D60326D68E565954201D16A68E26513
:1018100014225A438A18D26DD2684A63C366E3E73A
:10182000002B01D172B6FEE7013BE2E78C430020BA
:101830000C4400200C43002010B50C00002801D1FE
:1018400072B6FEE7044B596B044B183198470121DF
:101850002000034B984710BD0C43002019030000E3
:101860001913000070B50C001500002801D172B6E4
:10187000FEE7074B596B074B18319847002D01D0F5
:101880000124644229002000034B984770BDC046E4
:101890000C4300200103000019130000F8B5C368D1
:1018A000DC68002C01D172B6FEE727001837134B15
:1018B00038009847124E134D336F002B1AD1271D55
:1018C0000E4B38009847E26AF36E9A4200D9F266EE
:1018D0001423280053435830C0180B4B3900984745
:1018E0006B6BE26ADB6A00209A4202D9074B013037
:1018F0001860F8BD28001430EFE7C0464703000029
:101900008C4300200C430020010300000C44002005
:10191000034B9B6F0360034B1B6B43607047C046D8
:101920008C4300200C43002070B505000C000028FB
:1019300001D172B6FEE7002901D172B6FEE7114B64
:101940009847114B69681A6B23680026581C10D001
:101950000E482E68806F864202D001268A4208D245
:10196000521A9A4209D29B1A23602800084B9847C2
:101970000026084B9847300070BD002301262360E5
:10198000F7E7C046F10800000C4300208C4300201C
:1019900011190000090900000122014B1A6070476B
:1019A0000C440020044B01205A6E002A03D0186F0B
:1019B00043425841400070478C43002070B5051EDB
:1019C00031D01B4CC06A636BDB6A984225D2AB698D
:1019D000002B04DB0521636BDB6AC91AA9611422A1
:1019E0002300424358339B186A699A421CD12E1D2A
:1019F000104B30009847636B0F4ADB6AD16EEB6285
:101A00008B4200D9D3662000142463435830C01899
:101A100031000A4B9847012005E0636B686CDB6A74
:101A200098428041404270BD636BDB6AEB62F2E733
:101A30000C430020470300008C43002001030000FA
:101A400070B5041E01D1002070BD154D6B6B98421E
:101A500001D072B6FEE7836C002B01D172B6FEE7AF
:101A6000C26A416C013B83648A42ECD0002BEAD10C
:101A7000061D0C4B300098470522636CD21AA261F8
:101A8000094AE362D16E8B4200D9D366280014253F
:101A90006B435830C0183100044B98470120D3E7FE
:101AA0000C430020470300008C430020010300008A
:101AB00070B5041E34D0826C002A01D172B6FEE7E4
:101AC000436C8B4200D20B00E06A984228D0012A76
:101AD00026D1144D6A6B944201D172B6FEE7A26919
:101AE000E362002A02DB0521C91AA16114222B003E
:101AF000424358339B1862699A4211D1261D0A4B02
:101B000030009847094AE36AD16E8B4200D9D36608
:101B1000280014256B435830C0183100044B9847F7
:101B200070BDC0460C430020470300008C430020DA
:101B300001030000044B5A6B002A03D0596B8A6CD6
:101B400001328A64586B70470C430020F7B50F4B85
:101B500098470F4C23680193002B14D12500261DB4
:101B600030000C4F1835B8472800B847019A0C21AF
:101B70000520094BE662256398472060002802D0C3
:101B80000649074B9847074B9847F7BDF1080000F7
:101B900010440020E5020000DD0B00003C220000A4
:101BA000E91000000909000010B541600061914290
:101BB0000CD8D21A836901249A4205D2084B011D20
:101BC000186B084B98470024200010BD9A4202D29F
:101BD00001249942F8D2024B011DD86AF1E7C046B0
:101BE00010440020190300000A4B13B598470A4B14
:101BF0001A68002A01D172B6FEE73433019302233A
:101C000050220093054900230548064CA0470028B0
:101C1000F1D016BD4D1B00001044002041220000F1
:101C2000ED1C0000CD130000F0B5170085B00600D4
:101C30001A00002801D172B6FEE70D4D2C68201E57
:101C40000FD001910297039605290CDC094B9847A8
:101C5000094C00230A9A022800D01A00286801A91A
:101C6000A04705B0F0BD2000002301A9034CF7E711
:101C700010440020A51900002D0C0000890D000063
:101C8000F7B5164DEB6A1A68002A03D12A6BEA628F
:101C90002B63F7BDDB68DC681E68271D104B38001E
:101CA0009847636A20009847E369012BE9D1A3694B
:101CB000F3189E4206D2636024613900E86A094B3A
:101CC0009847DEE70021200000910B003200064C0F
:101CD000A0470028D5D172B6FEE7C04610440020C8
:101CE0004703000019030000291C0000F0B589B06B
:101CF0000027544CE36A1A680392BA4201D0DB68A9
:101D00001F68514B9847514B984700230293A36B90
:101D10000500984203D24E4B984701230293029B41
:101D2000A5634C4E002B61D1039B002B24D002985D
:101D3000AF4225D8B047E36ADB68DE68464B301D0A
:101D40009847F369012B13D1B3692A00F9183000C1
:101D50003B00424DA84700280AD0029B3A0000935E
:101D6000190030003E4DA847002801D172B6FEE7A9
:101D70003000736A98470DE0236B1A685042504157
:101D80000200791B2068374B9847B047002801D1E3
:101D9000354B9847002205A92068344B9847002806
:101DA000A6D0059B002BF5DB079D6B69002B02D0AD
:101DB000281D294B9847254B9847A36B060098424E
:101DC00001D2234B9847059BA663092BE2D8012239
:101DD00084279A40BF001300174026D1C722134220
:101DE00006D19B06D6D52800214BC3E7B047D1E7E3
:101DF000069BAA69280099183200184E0293B04732
:101E00000028C7D06B6A28009847EB69012BC1D125
:101E1000AB69069A2800D21800973B003900104D94
:101E2000A8470028B6D172B6FEE70699A961002935
:101E300001D172B6FEE78919330032002800074D40
:101E4000A847A7E710440020C1150000D1150000E5
:101E5000811C0000C116000047030000A91B000000
:101E6000291C00000D110000D9080000410E0000DF
:101E7000A502000004231A4A0220116A0B431362D0
:101E80008322184B52025A60174A0F215A800122AE
:101E9000164B1A70164B06321A70164A13788B437B
:101EA000034313701378194020230B431370124B14
:101EB0001A6882431A60114A1A60DA69002AFCD152
:101EC0000F4A9A81DA69002AFCD1C02292025A6034
:101ED000DA69002AFCD1196802320A431A60704795
:101EE00000040040000C0040144000004A4400413F
:101EF0004B44004135440041000800420400314099
:101F000015FBFFFF70B50D4E0D4D0024AD1BAD1040
:101F100005D0A300F35801349847A542F9D100F049
:101F200097F9084E084D0024AD1BAD1005D0A30055
:101F3000F35801349847A542F9D170BD5C220000E6
:101F40005C2200005C22000064220000F0B5050065
:101F50000F2A2FD90B0003439B0734D116000C0026
:101F60000300103E350901352D01451927681F6012
:101F700067685F60A7689F60E7681034DF601033B0
:101F80009D42F3D10F239E431036851989191340C2
:101F9000032B1AD91E1F0023B4080134A400CF5804
:101FA000EF500433A342FAD10324A643331D224049
:101FB000C918ED18002A05D00023CC5CEC5401337D
:101FC0009342FAD1F0BD0500F6E71A00F2E7C046E9
:101FD000F0B5830743D0541E002A3FD0CEB2020092
:101FE000032502E01A00013C38D3531C16702B4223
:101FF000F8D1032C2AD9FF220A40150215432A04DE
:1020000015430F2C14D927001A00103F3E09013642
:1020100036019E19156055609560D5601032964264
:10202000F8D10F2297431037DB191440032C0DD938
:102030001A00271FBE080136B6009E1920C2B24200
:10204000FCD1032297430437DB191440002C05D040
:10205000C9B21C19197001339C42FBD1F0BD1400A8
:102060000300C6E7034B10B5002B02D0024800F076
:1020700005F810BD000000008D20000010B5010023
:1020800000230022002000F01FF810BD70B5094B9E
:10209000094CE41AA41009D0084AA518AD00ED189F
:1020A0002B68013C9847043D002CF9D100F0DAF888
:1020B00070BDC0467022000074220000FFFFFF3F89
:1020C0007047C0467047C046F0B54E464546DE46AE
:1020D0005746E0B5364D83B00600286898460F0095
:1020E0009146FFF7EDFF334B1C68A4235B00E058DB
:1020F000002852D043681F2B13DC5A1C0192002E7B
:1021000028D1019A02339B0042601F502868FFF7D4
:10211000D9FF002003B03CBC90469946A246AB468E
:10212000F0BD254B002B3DD0C820400000E000BF93
:10213000002837D0A42200235200A1584360016038
:10214000A050403283500432835001330193002366
:10215000002ED6D09A00924682444A4688215446A0
:102160006250C4225200914681444A4687399940C0
:1021700012688B460A4394464A466146116084229F
:1021800041465200A150022EBBD102005C468D3266
:10219000FF3211680C431460B3E720004D30FF306C
:1021A000E050A7E72868FFF78DFF01204042B1E724
:1021B000380400204C220000000000005800554167
:1021C000525420436F6E6E656374696F6E20457262
:1021D000726F7200636C6F736520646F6F72006F53
:1021E00070656E20646F6F7200496E7465726E6503
:1021F0007420436F6E6E656374696F6E20457272F2
:102200006F7200436865636B52780050696E675265
:102210006173700050617373446174610048616E52
:10222000646C65446F6F720049444C450009256336
:102230000925750925750925750D0A00546D72511A
:1022400000546D72205376630000000010000020DF
:10225000F8B5C046F8BC08BC9E4670476520000033
:10226000DD000000F8B5C046F8BC08BC9E467047CB
:04227000B5000000B5
:1022740040420F00783E000001000000AAAAAAAA6A
:1022840000000000FC02002064030020CC030020B6
:10229400000000000000000000000000000000003A
:1022A400000000000000000000000000000000002A
:1022B400000000000000000000000000000000001A
:1022C400000000000000000000000000000000000A
:1022D40000000000000000000000000000000000FA
:1022E40000000000000000000000000000000000EA
:1022F40000000000000000000000000000000000DA
:1023040000000000000000000000000000000000C9
:1023140000000000000000000000000000000000B9
:1023240000000000000000000100000000000000A8
:102334000E33CDAB34126DE6ECDE05000B0000006D
:102344000000000000000000000000000000000089
:102354000000000000000000000000000000000079
:102364000000000000000000000000000000000069
:102374000000000000000000000000000000000059
:0C26A40000000000000000009444002032
:00000001FF
